{
  "_format": "hh-sol-artifact-1",
  "contractName": "Cosmetics",
  "sourceName": "contracts/Cosmetics.sol",
  "abi": [
    {
      "inputs": [],
      "stateMutability": "nonpayable",
      "type": "constructor"
    },
    {
      "inputs": [],
      "name": "_materialOrder_count",
      "outputs": [
        {
          "internalType": "uint256",
          "name": "",
          "type": "uint256"
        }
      ],
      "stateMutability": "view",
      "type": "function"
    },
    {
      "inputs": [
        {
          "internalType": "uint256",
          "name": "",
          "type": "uint256"
        }
      ],
      "name": "_materialOrder_list",
      "outputs": [
        {
          "internalType": "uint256",
          "name": "id",
          "type": "uint256"
        },
        {
          "internalType": "string",
          "name": "materialName",
          "type": "string"
        },
        {
          "internalType": "string",
          "name": "supplierName",
          "type": "string"
        },
        {
          "internalType": "uint256",
          "name": "amount",
          "type": "uint256"
        },
        {
          "internalType": "uint256",
          "name": "createdDate",
          "type": "uint256"
        },
        {
          "internalType": "uint256",
          "name": "finishedDate",
          "type": "uint256"
        },
        {
          "internalType": "enum Cosmetics.Status",
          "name": "status",
          "type": "uint8"
        }
      ],
      "stateMutability": "view",
      "type": "function"
    },
    {
      "inputs": [],
      "name": "_productOrder_count",
      "outputs": [
        {
          "internalType": "uint256",
          "name": "",
          "type": "uint256"
        }
      ],
      "stateMutability": "view",
      "type": "function"
    },
    {
      "inputs": [
        {
          "internalType": "uint256",
          "name": "",
          "type": "uint256"
        }
      ],
      "name": "_productOrder_list",
      "outputs": [
        {
          "internalType": "uint256",
          "name": "id",
          "type": "uint256"
        },
        {
          "internalType": "string",
          "name": "productName",
          "type": "string"
        },
        {
          "internalType": "string",
          "name": "retailerName",
          "type": "string"
        },
        {
          "internalType": "uint256",
          "name": "amount",
          "type": "uint256"
        },
        {
          "internalType": "uint256",
          "name": "createdDate",
          "type": "uint256"
        },
        {
          "internalType": "uint256",
          "name": "finishedDate",
          "type": "uint256"
        },
        {
          "internalType": "enum Cosmetics.Status",
          "name": "status",
          "type": "uint8"
        }
      ],
      "stateMutability": "view",
      "type": "function"
    },
    {
      "inputs": [],
      "name": "_productionBatch_count",
      "outputs": [
        {
          "internalType": "uint256",
          "name": "",
          "type": "uint256"
        }
      ],
      "stateMutability": "view",
      "type": "function"
    },
    {
      "inputs": [
        {
          "internalType": "uint256",
          "name": "",
          "type": "uint256"
        }
      ],
      "name": "_productionBatch_list",
      "outputs": [
        {
          "internalType": "uint256",
          "name": "id",
          "type": "uint256"
        },
        {
          "internalType": "string",
          "name": "productName",
          "type": "string"
        },
        {
          "internalType": "uint256",
          "name": "amount",
          "type": "uint256"
        },
        {
          "internalType": "uint256",
          "name": "createdDate",
          "type": "uint256"
        },
        {
          "internalType": "uint256",
          "name": "finishedDate",
          "type": "uint256"
        },
        {
          "internalType": "enum Cosmetics.Status",
          "name": "status",
          "type": "uint8"
        }
      ],
      "stateMutability": "view",
      "type": "function"
    },
    {
      "inputs": [],
      "name": "_transportProductOrder_count",
      "outputs": [
        {
          "internalType": "uint256",
          "name": "",
          "type": "uint256"
        }
      ],
      "stateMutability": "view",
      "type": "function"
    },
    {
      "inputs": [
        {
          "internalType": "uint256",
          "name": "",
          "type": "uint256"
        }
      ],
      "name": "_transportProductOrder_list",
      "outputs": [
        {
          "internalType": "uint256",
          "name": "id",
          "type": "uint256"
        },
        {
          "internalType": "uint256",
          "name": "productOrderId",
          "type": "uint256"
        },
        {
          "internalType": "string",
          "name": "retailerName",
          "type": "string"
        },
        {
          "internalType": "uint256",
          "name": "createdDate",
          "type": "uint256"
        },
        {
          "internalType": "uint256",
          "name": "finishedDate",
          "type": "uint256"
        },
        {
          "internalType": "enum Cosmetics.Status",
          "name": "status",
          "type": "uint8"
        }
      ],
      "stateMutability": "view",
      "type": "function"
    },
    {
      "inputs": [
        {
          "internalType": "uint256",
          "name": "materialOrderId",
          "type": "uint256"
        }
      ],
      "name": "acceptMaterialOrder",
      "outputs": [],
      "stateMutability": "nonpayable",
      "type": "function"
    },
    {
      "inputs": [
        {
          "internalType": "uint256",
          "name": "productOrderId",
          "type": "uint256"
        }
      ],
      "name": "acceptProductOrder",
      "outputs": [],
      "stateMutability": "nonpayable",
      "type": "function"
    },
    {
      "inputs": [
        {
          "internalType": "uint256",
          "name": "productionBatchId",
          "type": "uint256"
        },
        {
          "internalType": "string",
          "name": "process",
          "type": "string"
        }
      ],
      "name": "addCheckingProcess",
      "outputs": [],
      "stateMutability": "nonpayable",
      "type": "function"
    },
    {
      "inputs": [
        {
          "internalType": "uint256",
          "name": "productionBatchId",
          "type": "uint256"
        },
        {
          "internalType": "string",
          "name": "material",
          "type": "string"
        }
      ],
      "name": "addMaterial",
      "outputs": [],
      "stateMutability": "nonpayable",
      "type": "function"
    },
    {
      "inputs": [
        {
          "internalType": "uint256",
          "name": "productionBatchId",
          "type": "uint256"
        },
        {
          "internalType": "string",
          "name": "process",
          "type": "string"
        }
      ],
      "name": "addProductionProcess",
      "outputs": [],
      "stateMutability": "nonpayable",
      "type": "function"
    },
    {
      "inputs": [
        {
          "internalType": "uint256",
          "name": "productionBatchId",
          "type": "uint256"
        }
      ],
      "name": "changeToChecking",
      "outputs": [],
      "stateMutability": "nonpayable",
      "type": "function"
    },
    {
      "inputs": [
        {
          "internalType": "uint256",
          "name": "productionBatchId",
          "type": "uint256"
        }
      ],
      "name": "changeToDone",
      "outputs": [],
      "stateMutability": "nonpayable",
      "type": "function"
    },
    {
      "inputs": [
        {
          "internalType": "string",
          "name": "supplierName",
          "type": "string"
        },
        {
          "internalType": "string",
          "name": "materialName",
          "type": "string"
        },
        {
          "internalType": "uint256",
          "name": "amount",
          "type": "uint256"
        }
      ],
      "name": "createMaterialOrder",
      "outputs": [],
      "stateMutability": "nonpayable",
      "type": "function"
    },
    {
      "inputs": [
        {
          "internalType": "string",
          "name": "retailerName",
          "type": "string"
        },
        {
          "internalType": "string",
          "name": "productName",
          "type": "string"
        },
        {
          "internalType": "uint256",
          "name": "amount",
          "type": "uint256"
        }
      ],
      "name": "createProductOrder",
      "outputs": [],
      "stateMutability": "nonpayable",
      "type": "function"
    },
    {
      "inputs": [
        {
          "internalType": "string",
          "name": "productName",
          "type": "string"
        },
        {
          "internalType": "uint256",
          "name": "amount",
          "type": "uint256"
        }
      ],
      "name": "createProductionBatch",
      "outputs": [],
      "stateMutability": "nonpayable",
      "type": "function"
    },
    {
      "inputs": [
        {
          "internalType": "string",
          "name": "retailerName",
          "type": "string"
        },
        {
          "internalType": "uint256",
          "name": "productOrderId",
          "type": "uint256"
        }
      ],
      "name": "createTransportProductOrder",
      "outputs": [],
      "stateMutability": "nonpayable",
      "type": "function"
    },
    {
      "inputs": [],
      "name": "getMaterialOrder",
      "outputs": [
        {
          "components": [
            {
              "internalType": "uint256",
              "name": "id",
              "type": "uint256"
            },
            {
              "internalType": "string",
              "name": "materialName",
              "type": "string"
            },
            {
              "internalType": "string",
              "name": "supplierName",
              "type": "string"
            },
            {
              "internalType": "uint256",
              "name": "amount",
              "type": "uint256"
            },
            {
              "internalType": "uint256",
              "name": "createdDate",
              "type": "uint256"
            },
            {
              "internalType": "uint256",
              "name": "finishedDate",
              "type": "uint256"
            },
            {
              "internalType": "enum Cosmetics.Status",
              "name": "status",
              "type": "uint8"
            }
          ],
          "internalType": "struct Cosmetics.MaterialOrder[]",
          "name": "",
          "type": "tuple[]"
        }
      ],
      "stateMutability": "view",
      "type": "function"
    },
    {
      "inputs": [],
      "name": "getProductOrder",
      "outputs": [
        {
          "components": [
            {
              "internalType": "uint256",
              "name": "id",
              "type": "uint256"
            },
            {
              "internalType": "string",
              "name": "productName",
              "type": "string"
            },
            {
              "internalType": "string",
              "name": "retailerName",
              "type": "string"
            },
            {
              "internalType": "uint256",
              "name": "amount",
              "type": "uint256"
            },
            {
              "internalType": "uint256",
              "name": "createdDate",
              "type": "uint256"
            },
            {
              "internalType": "uint256",
              "name": "finishedDate",
              "type": "uint256"
            },
            {
              "internalType": "enum Cosmetics.Status",
              "name": "status",
              "type": "uint8"
            },
            {
              "internalType": "string[]",
              "name": "locations",
              "type": "string[]"
            }
          ],
          "internalType": "struct Cosmetics.ProductOrder[]",
          "name": "",
          "type": "tuple[]"
        }
      ],
      "stateMutability": "view",
      "type": "function"
    },
    {
      "inputs": [],
      "name": "getProductionPatch",
      "outputs": [
        {
          "components": [
            {
              "internalType": "uint256",
              "name": "id",
              "type": "uint256"
            },
            {
              "internalType": "string",
              "name": "productName",
              "type": "string"
            },
            {
              "internalType": "uint256",
              "name": "amount",
              "type": "uint256"
            },
            {
              "internalType": "uint256",
              "name": "createdDate",
              "type": "uint256"
            },
            {
              "internalType": "uint256",
              "name": "finishedDate",
              "type": "uint256"
            },
            {
              "internalType": "enum Cosmetics.Status",
              "name": "status",
              "type": "uint8"
            },
            {
              "internalType": "string[]",
              "name": "materials",
              "type": "string[]"
            },
            {
              "internalType": "string[]",
              "name": "productionProcess",
              "type": "string[]"
            },
            {
              "internalType": "string[]",
              "name": "checkingProcesses",
              "type": "string[]"
            }
          ],
          "internalType": "struct Cosmetics.ProductionBatch[]",
          "name": "",
          "type": "tuple[]"
        }
      ],
      "stateMutability": "view",
      "type": "function"
    },
    {
      "inputs": [
        {
          "internalType": "uint256",
          "name": "materialOrderId",
          "type": "uint256"
        }
      ],
      "name": "receiveMaterialOrder",
      "outputs": [],
      "stateMutability": "nonpayable",
      "type": "function"
    },
    {
      "inputs": [
        {
          "internalType": "uint256",
          "name": "productOrderId",
          "type": "uint256"
        }
      ],
      "name": "receiveProductOrder",
      "outputs": [],
      "stateMutability": "nonpayable",
      "type": "function"
    }
  ],
  "bytecode": "0x60806040526000805560006002556000600455600060065534801561002357600080fd5b5033600860006101000a81548173ffffffffffffffffffffffffffffffffffffffff021916908373ffffffffffffffffffffffffffffffffffffffff160217905550613117806100746000396000f3fe608060405234801561001057600080fd5b50600436106101585760003560e01c80637c2e3221116100c3578063d4892a2b1161007c578063d4892a2b146103c7578063d65ee68e146103e3578063dd79d1a0146103ff578063df3cc7081461041b578063e60cf27a14610437578063fffadf571461045357610158565b80637c2e3221146102ea578063808c00de146103205780639f3b6bc81461033c578063a867eccf14610371578063a86fb2bc1461038d578063c988ec50146103ab57610158565b80634d402ebe116101155780634d402ebe14610221578063516d2ccf1461023f578063526101a71461025d578063584a750c1461027b5780635b1eadbe146102b05780636dec0559146102cc57610158565b806328d13f141461015d57806332107c8e146101795780634289701414610195578063461a76a7146101b15780634818658f146101cd5780634b0a629f146101eb575b600080fd5b61017760048036038101906101729190612501565b610471565b005b610193600480360381019061018e91906124ad565b6104f4565b005b6101af60048036038101906101aa9190612501565b610626565b005b6101cb60048036038101906101c6919061252a565b61071e565b005b6101d561091a565b6040516101e29190612b77565b60405180910390f35b61020560048036038101906102009190612501565b610920565b6040516102189796959493929190612b92565b60405180910390f35b610229610a7f565b6040516102369190612af3565b60405180910390f35b610247610e59565b6040516102549190612b77565b60405180910390f35b610265610e5f565b6040516102729190612b15565b60405180910390f35b61029560048036038101906102909190612501565b6113d6565b6040516102a796959493929190612c0f565b60405180910390f35b6102ca60048036038101906102c59190612501565b6114a7565b005b6102d461150f565b6040516102e19190612b77565b60405180910390f35b61030460048036038101906102ff9190612501565b611515565b6040516103179796959493929190612b92565b60405180910390f35b61033a6004803603810190610335919061242e565b611674565b005b61035660048036038101906103519190612501565b6117ca565b60405161036896959493929190612c77565b60405180910390f35b61038b6004803603810190610386919061242e565b61189b565b005b610395611a18565b6040516103a29190612ad1565b60405180910390f35b6103c560048036038101906103c09190612501565b611d18565b005b6103e160048036038101906103dc9190612501565b611d7f565b005b6103fd60048036038101906103f8919061252a565b611e02565b005b6104196004803603810190610414919061252a565b611f22565b005b61043560048036038101906104309190612501565b612006565b005b610451600480360381019061044c91906124ad565b6120fe565b005b61045b6121c0565b6040516104689190612b77565b60405180910390f35b60066005600083815260200190815260200160002060060160006101000a81548160ff021916908360068111156104d1577f4e487b7100000000000000000000000000000000000000000000000000000000600052602160045260246000fd5b021790555042600560008381526020019081526020016000206005018190555050565b6040518060c001604052806006548152602001828152602001838152602001428152602001600081526020016000600681111561055a577f4e487b7100000000000000000000000000000000000000000000000000000000600052602160045260246000fd5b8152506007600060066000815461057090612f4e565b9190508190558152602001908152602001600020600082015181600001556020820151816001015560408201518160020190805190602001906105b49291906121c6565b50606082015181600301556080820151816004015560a08201518160050160006101000a81548160ff0219169083600681111561061a577f4e487b7100000000000000000000000000000000000000000000000000000000600052602160045260246000fd5b02179055509050505050565b600860009054906101000a900473ffffffffffffffffffffffffffffffffffffffff1673ffffffffffffffffffffffffffffffffffffffff163373ffffffffffffffffffffffffffffffffffffffff16146106b6576040517f08c379a00000000000000000000000000000000000000000000000000000000081526004016106ad90612b57565b60405180910390fd5b60026001600083815260200190815260200160002060050160006101000a81548160ff02191690836006811115610716577f4e487b7100000000000000000000000000000000000000000000000000000000600052602160045260246000fd5b021790555050565b600860009054906101000a900473ffffffffffffffffffffffffffffffffffffffff1673ffffffffffffffffffffffffffffffffffffffff163373ffffffffffffffffffffffffffffffffffffffff16146107ae576040517f08c379a00000000000000000000000000000000000000000000000000000000081526004016107a590612b57565b60405180910390fd5b60006001600084815260200190815260200160002060050160009054906101000a900460ff16905060026006811115610810577f4e487b7100000000000000000000000000000000000000000000000000000000600052602160045260246000fd5b816006811115610849577f4e487b7100000000000000000000000000000000000000000000000000000000600052602160045260246000fd5b14610889576040517f08c379a000000000000000000000000000000000000000000000000000000000815260040161088090612b37565b60405180910390fd5b600060016000858152602001908152602001600020600801805490509050826001600086815260200190815260200160002060080182815481106108f6577f4e487b7100000000000000000000000000000000000000000000000000000000600052603260045260246000fd5b9060005260206000200190805190602001906109139291906121c6565b5050505050565b60065481565b600360205280600052604060002060009150905080600001549080600101805461094990612eeb565b80601f016020809104026020016040519081016040528092919081815260200182805461097590612eeb565b80156109c25780601f10610997576101008083540402835291602001916109c2565b820191906000526020600020905b8154815290600101906020018083116109a557829003601f168201915b5050505050908060020180546109d790612eeb565b80601f0160208091040260200160405190810160405280929190818152602001828054610a0390612eeb565b8015610a505780601f10610a2557610100808354040283529160200191610a50565b820191906000526020600020905b815481529060010190602001808311610a3357829003601f168201915b5050505050908060030154908060040154908060050154908060060160009054906101000a900460ff16905087565b6060600860009054906101000a900473ffffffffffffffffffffffffffffffffffffffff1673ffffffffffffffffffffffffffffffffffffffff163373ffffffffffffffffffffffffffffffffffffffff1614610b11576040517f08c379a0000000000000000000000000000000000000000000000000000000008152600401610b0890612b57565b60405180910390fd5b60606000600190505b6004548111610e5157600560008281526020019081526020016000206040518061010001604052908160008201548152602001600182018054610b5c90612eeb565b80601f0160208091040260200160405190810160405280929190818152602001828054610b8890612eeb565b8015610bd55780601f10610baa57610100808354040283529160200191610bd5565b820191906000526020600020905b815481529060010190602001808311610bb857829003601f168201915b50505050508152602001600282018054610bee90612eeb565b80601f0160208091040260200160405190810160405280929190818152602001828054610c1a90612eeb565b8015610c675780601f10610c3c57610100808354040283529160200191610c67565b820191906000526020600020905b815481529060010190602001808311610c4a57829003601f168201915b505050505081526020016003820154815260200160048201548152602001600582015481526020016006820160009054906101000a900460ff166006811115610cd9577f4e487b7100000000000000000000000000000000000000000000000000000000600052602160045260246000fd5b6006811115610d11577f4e487b7100000000000000000000000000000000000000000000000000000000600052602160045260246000fd5b815260200160078201805480602002602001604051908101604052809291908181526020016000905b82821015610de6578382906000526020600020018054610d5990612eeb565b80601f0160208091040260200160405190810160405280929190818152602001828054610d8590612eeb565b8015610dd25780601f10610da757610100808354040283529160200191610dd2565b820191906000526020600020905b815481529060010190602001808311610db557829003601f168201915b505050505081526020019060010190610d3a565b505050508152505082600183610dfc9190612e46565b81518110610e33577f4e487b7100000000000000000000000000000000000000000000000000000000600052603260045260246000fd5b60200260200101819052508080610e4990612f4e565b915050610b1a565b508091505090565b60005481565b6060600860009054906101000a900473ffffffffffffffffffffffffffffffffffffffff1673ffffffffffffffffffffffffffffffffffffffff163373ffffffffffffffffffffffffffffffffffffffff1614610ef1576040517f08c379a0000000000000000000000000000000000000000000000000000000008152600401610ee890612b57565b60405180910390fd5b6000805467ffffffffffffffff811115610f34577f4e487b7100000000000000000000000000000000000000000000000000000000600052604160045260246000fd5b604051908082528060200260200182016040528015610f6d57816020015b610f5a61224c565b815260200190600190039081610f525790505b5090506000600190505b60005481116113ce57600160008281526020019081526020016000206040518061012001604052908160008201548152602001600182018054610fb990612eeb565b80601f0160208091040260200160405190810160405280929190818152602001828054610fe590612eeb565b80156110325780601f1061100757610100808354040283529160200191611032565b820191906000526020600020905b81548152906001019060200180831161101557829003601f168201915b505050505081526020016002820154815260200160038201548152602001600482015481526020016005820160009054906101000a900460ff1660068111156110a4577f4e487b7100000000000000000000000000000000000000000000000000000000600052602160045260246000fd5b60068111156110dc577f4e487b7100000000000000000000000000000000000000000000000000000000600052602160045260246000fd5b815260200160068201805480602002602001604051908101604052809291908181526020016000905b828210156111b157838290600052602060002001805461112490612eeb565b80601f016020809104026020016040519081016040528092919081815260200182805461115090612eeb565b801561119d5780601f106111725761010080835404028352916020019161119d565b820191906000526020600020905b81548152906001019060200180831161118057829003601f168201915b505050505081526020019060010190611105565b50505050815260200160078201805480602002602001604051908101604052809291908181526020016000905b8282101561128a5783829060005260206000200180546111fd90612eeb565b80601f016020809104026020016040519081016040528092919081815260200182805461122990612eeb565b80156112765780601f1061124b57610100808354040283529160200191611276565b820191906000526020600020905b81548152906001019060200180831161125957829003601f168201915b5050505050815260200190600101906111de565b50505050815260200160088201805480602002602001604051908101604052809291908181526020016000905b828210156113635783829060005260206000200180546112d690612eeb565b80601f016020809104026020016040519081016040528092919081815260200182805461130290612eeb565b801561134f5780601f106113245761010080835404028352916020019161134f565b820191906000526020600020905b81548152906001019060200180831161133257829003601f168201915b5050505050815260200190600101906112b7565b5050505081525050826001836113799190612e46565b815181106113b0577f4e487b7100000000000000000000000000000000000000000000000000000000600052603260045260246000fd5b602002602001018190525080806113c690612f4e565b915050610f77565b508091505090565b60016020528060005260406000206000915090508060000154908060010180546113ff90612eeb565b80601f016020809104026020016040519081016040528092919081815260200182805461142b90612eeb565b80156114785780601f1061144d57610100808354040283529160200191611478565b820191906000526020600020905b81548152906001019060200180831161145b57829003601f168201915b5050505050908060020154908060030154908060040154908060050160009054906101000a900460ff16905086565b60056003600083815260200190815260200160002060060160006101000a81548160ff02191690836006811115611507577f4e487b7100000000000000000000000000000000000000000000000000000000600052602160045260246000fd5b021790555050565b60025481565b600560205280600052604060002060009150905080600001549080600101805461153e90612eeb565b80601f016020809104026020016040519081016040528092919081815260200182805461156a90612eeb565b80156115b75780601f1061158c576101008083540402835291602001916115b7565b820191906000526020600020905b81548152906001019060200180831161159a57829003601f168201915b5050505050908060020180546115cc90612eeb565b80601f01602080910402602001604051908101604052809291908181526020018280546115f890612eeb565b80156116455780601f1061161a57610100808354040283529160200191611645565b820191906000526020600020905b81548152906001019060200180831161162857829003601f168201915b5050505050908060030154908060040154908060050154908060060160009054906101000a900460ff16905087565b6040518060e00160405280600254815260200183815260200184815260200182815260200142815260200160008152602001600060068111156116e0577f4e487b7100000000000000000000000000000000000000000000000000000000600052602160045260246000fd5b815250600360006002600081546116f690612f4e565b91905081905581526020019081526020016000206000820151816000015560208201518160010190805190602001906117309291906121c6565b50604082015181600201908051906020019061174d9291906121c6565b50606082015181600301556080820151816004015560a0820151816005015560c08201518160060160006101000a81548160ff021916908360068111156117bd577f4e487b7100000000000000000000000000000000000000000000000000000000600052602160045260246000fd5b0217905550905050505050565b60076020528060005260406000206000915090508060000154908060010154908060020180546117f990612eeb565b80601f016020809104026020016040519081016040528092919081815260200182805461182590612eeb565b80156118725780601f1061184757610100808354040283529160200191611872565b820191906000526020600020905b81548152906001019060200180831161185557829003601f168201915b5050505050908060030154908060040154908060050160009054906101000a900460ff16905086565b60606040518061010001604052806004548152602001848152602001858152602001838152602001428152602001600081526020016000600681111561190a577f4e487b7100000000000000000000000000000000000000000000000000000000600052602160045260246000fd5b8152602001828152506005600060046000815461192690612f4e565b91905081905581526020019081526020016000206000820151816000015560208201518160010190805190602001906119609291906121c6565b50604082015181600201908051906020019061197d9291906121c6565b50606082015181600301556080820151816004015560a0820151816005015560c08201518160060160006101000a81548160ff021916908360068111156119ed577f4e487b7100000000000000000000000000000000000000000000000000000000600052602160045260246000fd5b021790555060e0820151816007019080519060200190611a0e9291906122d0565b5090505050505050565b6060600860009054906101000a900473ffffffffffffffffffffffffffffffffffffffff1673ffffffffffffffffffffffffffffffffffffffff163373ffffffffffffffffffffffffffffffffffffffff1614611aaa576040517f08c379a0000000000000000000000000000000000000000000000000000000008152600401611aa190612b57565b60405180910390fd5b60606000600190505b6002548111611d1057600360008281526020019081526020016000206040518060e001604052908160008201548152602001600182018054611af490612eeb565b80601f0160208091040260200160405190810160405280929190818152602001828054611b2090612eeb565b8015611b6d5780601f10611b4257610100808354040283529160200191611b6d565b820191906000526020600020905b815481529060010190602001808311611b5057829003601f168201915b50505050508152602001600282018054611b8690612eeb565b80601f0160208091040260200160405190810160405280929190818152602001828054611bb290612eeb565b8015611bff5780601f10611bd457610100808354040283529160200191611bff565b820191906000526020600020905b815481529060010190602001808311611be257829003601f168201915b505050505081526020016003820154815260200160048201548152602001600582015481526020016006820160009054906101000a900460ff166006811115611c71577f4e487b7100000000000000000000000000000000000000000000000000000000600052602160045260246000fd5b6006811115611ca9577f4e487b7100000000000000000000000000000000000000000000000000000000600052602160045260246000fd5b8152505082600183611cbb9190612e46565b81518110611cf2577f4e487b7100000000000000000000000000000000000000000000000000000000600052603260045260246000fd5b60200260200101819052508080611d0890612f4e565b915050611ab3565b508091505090565b600580600083815260200190815260200160002060060160006101000a81548160ff02191690836006811115611d77577f4e487b7100000000000000000000000000000000000000000000000000000000600052602160045260246000fd5b021790555050565b60066003600083815260200190815260200160002060060160006101000a81548160ff02191690836006811115611ddf577f4e487b7100000000000000000000000000000000000000000000000000000000600052602160045260246000fd5b021790555042600360008381526020019081526020016000206005018190555050565b600860009054906101000a900473ffffffffffffffffffffffffffffffffffffffff1673ffffffffffffffffffffffffffffffffffffffff163373ffffffffffffffffffffffffffffffffffffffff1614611e92576040517f08c379a0000000000000000000000000000000000000000000000000000000008152600401611e8990612b57565b60405180910390fd5b60006001600084815260200190815260200160002060070180549050905081600160008581526020019081526020016000206007018281548110611eff577f4e487b7100000000000000000000000000000000000000000000000000000000600052603260045260246000fd5b906000526020600020019080519060200190611f1c9291906121c6565b50505050565b600860009054906101000a900473ffffffffffffffffffffffffffffffffffffffff1673ffffffffffffffffffffffffffffffffffffffff163373ffffffffffffffffffffffffffffffffffffffff1614611fb2576040517f08c379a0000000000000000000000000000000000000000000000000000000008152600401611fa990612b57565b60405180910390fd5b60016000838152602001908152602001600020600601819080600181540180825580915050600190039060005260206000200160009091909190915090805190602001906120019291906121c6565b505050565b600860009054906101000a900473ffffffffffffffffffffffffffffffffffffffff1673ffffffffffffffffffffffffffffffffffffffff163373ffffffffffffffffffffffffffffffffffffffff1614612096576040517f08c379a000000000000000000000000000000000000000000000000000000000815260040161208d90612b57565b60405180910390fd5b60066001600083815260200190815260200160002060050160006101000a81548160ff021916908360068111156120f6577f4e487b7100000000000000000000000000000000000000000000000000000000600052602160045260246000fd5b021790555050565b600060016000806000815461211290612f4e565b9190508190558152602001908152602001600020905060005481600001819055508281600101908051906020019061214b9291906121c6565b508181600201819055504281600301819055506000816004018190555060018160050160006101000a81548160ff021916908360068111156121b6577f4e487b7100000000000000000000000000000000000000000000000000000000600052602160045260246000fd5b0217905550505050565b60045481565b8280546121d290612eeb565b90600052602060002090601f0160209004810192826121f4576000855561223b565b82601f1061220d57805160ff191683800117855561223b565b8280016001018555821561223b579182015b8281111561223a57825182559160200191906001019061221f565b5b5090506122489190612330565b5090565b6040518061012001604052806000815260200160608152602001600081526020016000815260200160008152602001600060068111156122b5577f4e487b7100000000000000000000000000000000000000000000000000000000600052602160045260246000fd5b81526020016060815260200160608152602001606081525090565b82805482825590600052602060002090810192821561231f579160200282015b8281111561231e57825182908051906020019061230e9291906121c6565b50916020019190600101906122f0565b5b50905061232c919061234d565b5090565b5b80821115612349576000816000905550600101612331565b5090565b5b8082111561236d57600081816123649190612371565b5060010161234e565b5090565b50805461237d90612eeb565b6000825580601f1061238f57506123ae565b601f0160209004906000526020600020908101906123ad9190612330565b5b50565b60006123c46123bf84612d04565b612cdf565b9050828152602081018484840111156123dc57600080fd5b6123e7848285612ea9565b509392505050565b600082601f83011261240057600080fd5b81356124108482602086016123b1565b91505092915050565b600081359050612428816130ca565b92915050565b60008060006060848603121561244357600080fd5b600084013567ffffffffffffffff81111561245d57600080fd5b612469868287016123ef565b935050602084013567ffffffffffffffff81111561248657600080fd5b612492868287016123ef565b92505060406124a386828701612419565b9150509250925092565b600080604083850312156124c057600080fd5b600083013567ffffffffffffffff8111156124da57600080fd5b6124e6858286016123ef565b92505060206124f785828601612419565b9150509250929050565b60006020828403121561251357600080fd5b600061252184828501612419565b91505092915050565b6000806040838503121561253d57600080fd5b600061254b85828601612419565b925050602083013567ffffffffffffffff81111561256857600080fd5b612574858286016123ef565b9150509250929050565b600061258a83836127c0565b905092915050565b600061259e8383612878565b905092915050565b60006125b2838361291b565b905092915050565b60006125c683836129d9565b905092915050565b60006125d982612d75565b6125e38185612de0565b9350836020820285016125f585612d35565b8060005b858110156126315784840389528151612612858261257e565b945061261d83612dac565b925060208a019950506001810190506125f9565b50829750879550505050505092915050565b600061264e82612d80565b6126588185612df1565b93508360208202850161266a85612d45565b8060005b858110156126a657848403895281516126878582612592565b945061269283612db9565b925060208a0199505060018101905061266e565b50829750879550505050505092915050565b60006126c382612d8b565b6126cd8185612e02565b9350836020820285016126df85612d55565b8060005b8581101561271b57848403895281516126fc85826125a6565b945061270783612dc6565b925060208a019950506001810190506126e3565b50829750879550505050505092915050565b600061273882612d96565b6127428185612e13565b93508360208202850161275485612d65565b8060005b85811015612790578484038952815161277185826125ba565b945061277c83612dd3565b925060208a01995050600181019050612758565b50829750879550505050505092915050565b6127ab81612e97565b82525050565b6127ba81612e97565b82525050565b60006127cb82612da1565b6127d58185612e24565b93506127e5818560208601612eb8565b6127ee81613053565b840191505092915050565b600061280482612da1565b61280e8185612e35565b935061281e818560208601612eb8565b61282781613053565b840191505092915050565b600061283f601f83612e35565b915061284a82613064565b602082019050919050565b6000612862600d83612e35565b915061286d8261308d565b602082019050919050565b600060e0830160008301516128906000860182612ab3565b50602083015184820360208601526128a882826127c0565b915050604083015184820360408601526128c282826127c0565b91505060608301516128d76060860182612ab3565b5060808301516128ea6080860182612ab3565b5060a08301516128fd60a0860182612ab3565b5060c083015161291060c08601826127a2565b508091505092915050565b6000610100830160008301516129346000860182612ab3565b506020830151848203602086015261294c82826127c0565b9150506040830151848203604086015261296682826127c0565b915050606083015161297b6060860182612ab3565b50608083015161298e6080860182612ab3565b5060a08301516129a160a0860182612ab3565b5060c08301516129b460c08601826127a2565b5060e083015184820360e08601526129cc82826125ce565b9150508091505092915050565b6000610120830160008301516129f26000860182612ab3565b5060208301518482036020860152612a0a82826127c0565b9150506040830151612a1f6040860182612ab3565b506060830151612a326060860182612ab3565b506080830151612a456080860182612ab3565b5060a0830151612a5860a08601826127a2565b5060c083015184820360c0860152612a7082826125ce565b91505060e083015184820360e0860152612a8a82826125ce565b915050610100830151848203610100860152612aa682826125ce565b9150508091505092915050565b612abc81612e8d565b82525050565b612acb81612e8d565b82525050565b60006020820190508181036000830152612aeb8184612643565b905092915050565b60006020820190508181036000830152612b0d81846126b8565b905092915050565b60006020820190508181036000830152612b2f818461272d565b905092915050565b60006020820190508181036000830152612b5081612832565b9050919050565b60006020820190508181036000830152612b7081612855565b9050919050565b6000602082019050612b8c6000830184612ac2565b92915050565b600060e082019050612ba7600083018a612ac2565b8181036020830152612bb981896127f9565b90508181036040830152612bcd81886127f9565b9050612bdc6060830187612ac2565b612be96080830186612ac2565b612bf660a0830185612ac2565b612c0360c08301846127b1565b98975050505050505050565b600060c082019050612c246000830189612ac2565b8181036020830152612c3681886127f9565b9050612c456040830187612ac2565b612c526060830186612ac2565b612c5f6080830185612ac2565b612c6c60a08301846127b1565b979650505050505050565b600060c082019050612c8c6000830189612ac2565b612c996020830188612ac2565b8181036040830152612cab81876127f9565b9050612cba6060830186612ac2565b612cc76080830185612ac2565b612cd460a08301846127b1565b979650505050505050565b6000612ce9612cfa565b9050612cf58282612f1d565b919050565b6000604051905090565b600067ffffffffffffffff821115612d1f57612d1e613024565b5b612d2882613053565b9050602081019050919050565b6000819050602082019050919050565b6000819050602082019050919050565b6000819050602082019050919050565b6000819050602082019050919050565b600081519050919050565b600081519050919050565b600081519050919050565b600081519050919050565b600081519050919050565b6000602082019050919050565b6000602082019050919050565b6000602082019050919050565b6000602082019050919050565b600082825260208201905092915050565b600082825260208201905092915050565b600082825260208201905092915050565b600082825260208201905092915050565b600082825260208201905092915050565b600082825260208201905092915050565b6000612e5182612e8d565b9150612e5c83612e8d565b925082821015612e6f57612e6e612f97565b5b828203905092915050565b6000819050612e88826130b6565b919050565b6000819050919050565b6000612ea282612e7a565b9050919050565b82818337600083830152505050565b60005b83811015612ed6578082015181840152602081019050612ebb565b83811115612ee5576000848401525b50505050565b60006002820490506001821680612f0357607f821691505b60208210811415612f1757612f16612ff5565b5b50919050565b612f2682613053565b810181811067ffffffffffffffff82111715612f4557612f44613024565b5b80604052505050565b6000612f5982612e8d565b91507fffffffffffffffffffffffffffffffffffffffffffffffffffffffffffffffff821415612f8c57612f8b612f97565b5b600182019050919050565b7f4e487b7100000000000000000000000000000000000000000000000000000000600052601160045260246000fd5b7f4e487b7100000000000000000000000000000000000000000000000000000000600052602160045260246000fd5b7f4e487b7100000000000000000000000000000000000000000000000000000000600052602260045260246000fd5b7f4e487b7100000000000000000000000000000000000000000000000000000000600052604160045260246000fd5b6000601f19601f8301169050919050565b7f43616e27742061646420636865636b696e672070726f63657373206e6f772100600082015250565b7f4f6e6c792070726f647563657200000000000000000000000000000000000000600082015250565b600781106130c7576130c6612fc6565b5b50565b6130d381612e8d565b81146130de57600080fd5b5056fea2646970667358221220fb99c57e726a623c23563a4e0222583a626c76d4271fda0126eeab26ebeee8e064736f6c63430008040033",
  "linkReferences": {},
  "deployedLinkReferences": {}
}